:040091007FE87E0383
:0B009500EF1FAC0670011E4C70F6223D
:10007700D291C292D293C294120091C291C292C2FB
:0A00870093C2947FD07E070200951B
:0900AC00C291D292C293D29422B7
:10003B00D293C294C291D2927F207E03120095C2BA
:0E004B0091C292C293C2947F207E0302009560
:10005900D291C292C293D2947F207E03120095C29C
:0E00690091C292C293C2947F207E0302009542
:0900B500C291C292C293C29422CE
:100003001200B520B60820B70512007780F530B688
:100013000920B70612005912009130B70920B6061D
:1000230012003B12009130B7DA30B6D71200B57F19
:08003300D07E0712009580CB7E
:030000000200A05B
:0C00A000787FE4F6D8FD758107020003AC
:00000001FF
